{
  "contractName": "Link",
  "abi": [
    {
      "constant": true,
      "inputs": [],
      "name": "price",
      "outputs": [
        {
          "internalType": "int256",
          "name": "",
          "type": "int256"
        }
      ],
      "payable": false,
      "stateMutability": "view",
      "type": "function"
    },
    {
      "constant": true,
      "inputs": [],
      "name": "ticker",
      "outputs": [
        {
          "internalType": "string",
          "name": "",
          "type": "string"
        }
      ],
      "payable": false,
      "stateMutability": "view",
      "type": "function"
    },
    {
      "constant": false,
      "inputs": [],
      "name": "LinkPrice",
      "outputs": [],
      "payable": false,
      "stateMutability": "nonpayable",
      "type": "function"
    }
  ],
  "bytecode": "0x608060405234801561001057600080fd5b506102c5806100206000396000f3fe608060405234801561001057600080fd5b50600436106100415760003560e01c80638ba47bdd14610046578063a035b1fe146100c9578063c4942405146100e7575b600080fd5b61004e6100f1565b6040518080602001828103825283818151815260200191508051906020019080838360005b8381101561008e578082015181840152602081019050610073565b50505050905090810190601f1680156100bb5780820380516001836020036101000a031916815260200191505b509250505060405180910390f35b6100d161018f565b6040518082815260200191505060405180910390f35b6100ef610195565b005b60018054600181600116156101000203166002900480601f0160208091040260200160405190810160405280929190818152602001828054600181600116156101000203166002900480156101875780601f1061015c57610100808354040283529160200191610187565b820191906000526020600020905b81548152906001019060200180831161016a57829003601f168201915b505050505081565b60005481565b60056000819055506040518060400160405280600481526020017f4c494e4b00000000000000000000000000000000000000000000000000000000815250600190805190602001906101e89291906101eb565b50565b828054600181600116156101000203166002900490600052602060002090601f016020900481019282601f1061022c57805160ff191683800117855561025a565b8280016001018555821561025a579182015b8281111561025957825182559160200191906001019061023e565b5b509050610267919061026b565b5090565b61028d91905b80821115610289576000816000905550600101610271565b5090565b9056fea265627a7a72315820e3f0f041e624c2c40c1e4a6cfd73356287bc7227ad51f5b565f6d17ec975846d64736f6c63430005100032",
  "source": "pragma solidity ^0.5.16;\n\ncontract Link {\n    // Get link price\n    // Read price\n    int public price;\n    string public ticker;\n    // Constructor\n    function LinkPrice () public {\n        price = 5;\n        ticker = \"LINK\";\n    }\n}",
  "sourcePath": "/Users/chadlengefeld/Desktop/cryptotradetool/contracts/Link.sol",
  "compiler": {
    "name": "solc",
    "version": "0.5.16+commit.9c3226ce.Emscripten.clang"
  },
  "schemaVersion": "3.4.3",
  "updatedAt": "2021-08-25T07:25:41.380Z",
  "devdoc": {
    "methods": {}
  },
  "userdoc": {
    "methods": {}
  }
}